{
  "address": "0x74a5ccf5Ad72779D137184Dc45F5dA618f715237",
  "abi": [
    {
      "inputs": [],
      "name": "ChannelAlreadyCreated",
      "type": "error"
    },
    {
      "inputs": [],
      "name": "FailToSendETH",
      "type": "error"
    },
    {
      "inputs": [],
      "name": "NoChannel",
      "type": "error"
    },
    {
      "inputs": [],
      "name": "NoClosingChannel",
      "type": "error"
    },
    {
      "inputs": [],
      "name": "NotEnoughBalance",
      "type": "error"
    },
    {
      "inputs": [],
      "name": "NotTimeYet",
      "type": "error"
    },
    {
      "inputs": [],
      "name": "RedundantWithdrawal",
      "type": "error"
    },
    {
      "anonymous": false,
      "inputs": [
        {
          "indexed": false,
          "internalType": "address",
          "name": "",
          "type": "address"
        }
      ],
      "name": "Challenged",
      "type": "event"
    },
    {
      "anonymous": false,
      "inputs": [
        {
          "indexed": false,
          "internalType": "address",
          "name": "",
          "type": "address"
        }
      ],
      "name": "Closed",
      "type": "event"
    },
    {
      "anonymous": false,
      "inputs": [
        {
          "indexed": false,
          "internalType": "address",
          "name": "",
          "type": "address"
        },
        {
          "indexed": false,
          "internalType": "uint256",
          "name": "",
          "type": "uint256"
        }
      ],
      "name": "Opened",
      "type": "event"
    },
    {
      "anonymous": false,
      "inputs": [
        {
          "indexed": true,
          "internalType": "address",
          "name": "previousOwner",
          "type": "address"
        },
        {
          "indexed": true,
          "internalType": "address",
          "name": "newOwner",
          "type": "address"
        }
      ],
      "name": "OwnershipTransferred",
      "type": "event"
    },
    {
      "anonymous": false,
      "inputs": [
        {
          "indexed": false,
          "internalType": "address",
          "name": "",
          "type": "address"
        },
        {
          "indexed": false,
          "internalType": "uint256",
          "name": "",
          "type": "uint256"
        }
      ],
      "name": "Withdrawn",
      "type": "event"
    },
    {
      "inputs": [
        {
          "internalType": "address",
          "name": "",
          "type": "address"
        }
      ],
      "name": "balances",
      "outputs": [
        {
          "internalType": "uint256",
          "name": "",
          "type": "uint256"
        }
      ],
      "stateMutability": "view",
      "type": "function"
    },
    {
      "inputs": [],
      "name": "beOwner",
      "outputs": [],
      "stateMutability": "nonpayable",
      "type": "function"
    },
    {
      "inputs": [
        {
          "internalType": "address",
          "name": "",
          "type": "address"
        }
      ],
      "name": "canCloseAt",
      "outputs": [
        {
          "internalType": "uint256",
          "name": "",
          "type": "uint256"
        }
      ],
      "stateMutability": "view",
      "type": "function"
    },
    {
      "inputs": [],
      "name": "challengeChannel",
      "outputs": [],
      "stateMutability": "nonpayable",
      "type": "function"
    },
    {
      "inputs": [],
      "name": "defundChannel",
      "outputs": [],
      "stateMutability": "nonpayable",
      "type": "function"
    },
    {
      "inputs": [],
      "name": "fundChannel",
      "outputs": [],
      "stateMutability": "payable",
      "type": "function"
    },
    {
      "inputs": [],
      "name": "owner",
      "outputs": [
        {
          "internalType": "address",
          "name": "",
          "type": "address"
        }
      ],
      "stateMutability": "view",
      "type": "function"
    },
    {
      "inputs": [],
      "name": "renounceOwnership",
      "outputs": [],
      "stateMutability": "nonpayable",
      "type": "function"
    },
    {
      "inputs": [
        {
          "internalType": "address",
          "name": "channel",
          "type": "address"
        }
      ],
      "name": "timeLeft",
      "outputs": [
        {
          "internalType": "uint256",
          "name": "",
          "type": "uint256"
        }
      ],
      "stateMutability": "view",
      "type": "function"
    },
    {
      "inputs": [
        {
          "internalType": "address",
          "name": "newOwner",
          "type": "address"
        }
      ],
      "name": "transferOwnership",
      "outputs": [],
      "stateMutability": "nonpayable",
      "type": "function"
    },
    {
      "inputs": [
        {
          "components": [
            {
              "internalType": "uint256",
              "name": "updatedBalance",
              "type": "uint256"
            },
            {
              "components": [
                {
                  "internalType": "bytes32",
                  "name": "r",
                  "type": "bytes32"
                },
                {
                  "internalType": "bytes32",
                  "name": "s",
                  "type": "bytes32"
                },
                {
                  "internalType": "uint8",
                  "name": "v",
                  "type": "uint8"
                }
              ],
              "internalType": "struct Streamer.Signature",
              "name": "sig",
              "type": "tuple"
            }
          ],
          "internalType": "struct Streamer.Voucher",
          "name": "voucher",
          "type": "tuple"
        }
      ],
      "name": "withdrawEarnings",
      "outputs": [],
      "stateMutability": "nonpayable",
      "type": "function"
    }
  ],
  "transactionHash": "0x3940b0868f45b04c4c95d9f0069f0bed3a4dd41ed137aac853970d9ea44253ea",
  "args": [],
  "numDeployments": 1,
  "solcInputHash": "79f50b1690b4066eca3221ba266e9aaf",
  "bytecode": "0x608060405234801561001057600080fd5b5061001a3361001f565b61006f565b600080546001600160a01b038381166001600160a01b0319831681178455604051919092169283917f8be0079c531659141344cd1fd0a4f28419497f9722a3daafe3b4186f6b6457e09190a35050565b6108d58061007e6000396000f3fe60806040526004361061009c5760003560e01c806388a025661161006457806388a02566146101355780638da5cb5b14610155578063bc8641b11461017d578063e10fe32a14610192578063f2fde38b146101a7578063f626e31f146101c757600080fd5b8063157f83ad146100a15780631e400d60146100ab57806327e235e3146100c0578063405c649c14610100578063715018a614610120575b600080fd5b6100a96101f4565b005b3480156100b757600080fd5b506100a9610271565b3480156100cc57600080fd5b506100ed6100db3660046107f4565b60016020526000908152604090205481565b6040519081526020015b60405180910390f35b34801561010c57600080fd5b506100ed61011b3660046107f4565b610380565b34801561012c57600080fd5b506100a96103f3565b34801561014157600080fd5b506100a9610150366004610822565b610407565b34801561016157600080fd5b506000546040516001600160a01b0390911681526020016100f7565b34801561018957600080fd5b506100a9610654565b34801561019e57600080fd5b506100a96106cf565b3480156101b357600080fd5b506100a96101c23660046107f4565b6106d4565b3480156101d357600080fd5b506100ed6101e23660046107f4565b60026020526000908152604090205481565b336000908152600160205260409020541561022257604051631f6206e560e01b815260040160405180910390fd5b3360008181526001602090815260409182902034908190558251938452908301527fc4b27f09c64550fd678a5b3c3a00f454814732e346e0f1c79d0add8f980346de91015b60405180910390a1565b3360009081526002602052604090205461029e57604051636a384f9960e01b815260040160405180910390fd5b3360009081526002602052604090205442116102cd57604051635a39b02f60e11b815260040160405180910390fd5b33600081815260016020526040808220805490839055905190929083908381818185875af1925050503d8060008114610322576040519150601f19603f3d011682016040523d82523d6000602084013e610327565b606091505b505090508061034957604051630dd113f360e21b815260040160405180910390fd5b6040513381527f13607bf9d2dd20e1f3a7daf47ab12856f8aad65e6ae7e2c75ace3d0c424a40e89060200160405180910390a15050565b6001600160a01b03811660009081526002602052604081205415806103bc57506001600160a01b03821660009081526002602052604090205442115b156103c957506000919050565b6001600160a01b0382166000908152600260205260409020546103ed904290610872565b92915050565b6103fb61074a565b61040560006107a4565b565b61040f61074a565b60408051823560208083019190915282518083038201815282840190935282519201919091207f19457468657265756d205369676e6564204d6573736167653a0a3332000000006060830152607c820181905290600090609c0160408051601f198184030181529190528051602082012090915060006001826104986080880160608901610839565b604080516000815260208082018084529490945260ff9092168282015291880135606082015290870135608082015260a0016020604051602081039080840390855afa1580156104ec573d6000803e3d6000fd5b505060408051601f1901516001600160a01b038116600090815260016020529190912054909250905085358114156105375760405163bd524bab60e01b815260040160405180910390fd5b85358110156105595760405163569d45cf60e11b815260040160405180910390fd5b6000610566873583610872565b6001600160a01b0384166000908152600160205260408120893590559091506105976000546001600160a01b031690565b6001600160a01b03168260405160006040518083038185875af1925050503d80600081146105e1576040519150601f19603f3d011682016040523d82523d6000602084013e6105e6565b606091505b505090508061060857604051630dd113f360e21b815260040160405180910390fd5b604080516001600160a01b0386168152602081018490527f7084f5476618d8e60b11ef0d7d3f06914655adb8793e28ff7f018d4c76d505d5910160405180910390a15050505050505050565b336000908152600160205260409020546106815760405163078226dd60e51b815260040160405180910390fd5b61068c42601e61085a565b3360008181526002602090815260409182902093909355519081527f98027b38153f995c4b802a5c7e6365bee3addb25af6b29818c0c304684d8052c9101610267565b610405335b6001600160a01b03811661073e5760405162461bcd60e51b815260206004820152602660248201527f4f776e61626c653a206e6577206f776e657220697320746865207a65726f206160448201526564647265737360d01b60648201526084015b60405180910390fd5b610747816107a4565b50565b6000546001600160a01b031633146104055760405162461bcd60e51b815260206004820181905260248201527f4f776e61626c653a2063616c6c6572206973206e6f7420746865206f776e65726044820152606401610735565b600080546001600160a01b038381166001600160a01b0319831681178455604051919092169283917f8be0079c531659141344cd1fd0a4f28419497f9722a3daafe3b4186f6b6457e09190a35050565b600060208284031215610805578081fd5b81356001600160a01b038116811461081b578182fd5b9392505050565b600060808284031215610833578081fd5b50919050565b60006020828403121561084a578081fd5b813560ff8116811461081b578182fd5b6000821982111561086d5761086d610889565b500190565b60008282101561088457610884610889565b500390565b634e487b7160e01b600052601160045260246000fdfea2646970667358221220cc768abdc4199ce10c4f6727b5aa7b26b7d2646ab760a56b8ebaa59dc86a78d864736f6c63430008040033",
  "devdoc": {
    "kind": "dev",
    "methods": {
      "owner()": {
        "details": "Returns the address of the current owner."
      },
      "renounceOwnership()": {
        "details": "Leaves the contract without owner. It will not be possible to call `onlyOwner` functions anymore. Can only be called by the current owner. NOTE: Renouncing ownership will leave the contract without an owner, thereby removing any functionality that is only available to the owner."
      },
      "transferOwnership(address)": {
        "details": "Transfers ownership of the contract to a new account (`newOwner`). Can only be called by the current owner."
      }
    },
    "version": 1
  },
  "userdoc": {
    "kind": "user",
    "methods": {},
    "version": 1
  },
  "storageLayout": {
    "storage": [
      {
        "astId": 7,
        "contract": "contracts/Streamer.sol:Streamer",
        "label": "_owner",
        "offset": 0,
        "slot": "0",
        "type": "t_address"
      },
      {
        "astId": 178,
        "contract": "contracts/Streamer.sol:Streamer",
        "label": "balances",
        "offset": 0,
        "slot": "1",
        "type": "t_mapping(t_address,t_uint256)"
      },
      {
        "astId": 182,
        "contract": "contracts/Streamer.sol:Streamer",
        "label": "canCloseAt",
        "offset": 0,
        "slot": "2",
        "type": "t_mapping(t_address,t_uint256)"
      }
    ],
    "types": {
      "t_address": {
        "encoding": "inplace",
        "label": "address",
        "numberOfBytes": "20"
      },
      "t_mapping(t_address,t_uint256)": {
        "encoding": "mapping",
        "key": "t_address",
        "label": "mapping(address => uint256)",
        "numberOfBytes": "32",
        "value": "t_uint256"
      },
      "t_uint256": {
        "encoding": "inplace",
        "label": "uint256",
        "numberOfBytes": "32"
      }
    }
  }
}